:10000000105D01200DBA0100C37C0600C5B90100D6
:10001000C5B90100C5B90100C5B90100C5B90100E4
:10002000000000000000000000000000A5A8010082
:10003000C5B9010000000000F9A70100C5B9010021
:1000400051A9010051A9010051A9010051A90100C4
:1000500051A9010051A9010051A9010051A90100B4
:1000600051A9010051A9010051A9010051A90100A4
:1000700051A9010051A9010051A9010051A9010094
:1000800051A9010051A9010051A9010051A9010084
:1000900051A9010051A9010051A9010051A9010074
:1000A00051A9010051A9010051A9010051A9010064
:1000B00051A9010051A9010051A9010051A9010054
:1000C00051A9010051A9010051A9010051A9010044
:1000D00051A9010051A9010051A9010051A9010034
:1000E00051A9010051A9010051A9010051A9010024
:1000F00051A9010051A9010051A9010051A9010014
:1001000051A9010051A9010051A9010051A9010003
:1001100051A9010051A9010051A9010051A90100F3
:1001200051A9010051A9010051A9010051A90100E3
:1001300051A9010051A9010051A9010051A90100D3
:1001400051A9010051A9010051A9010051A90100C3
:0401500051A90100B0
:04015400FFFFFFFFAB
:1001580081F0004102E000BF83F0004330B54FEA70
:1001680041044FEA430594EA050F08BF90EA020FDD
:100178001FBF54EA000C55EA020C7FEA645C7FEA70
:10018800655C00F0E2804FEA5454D4EB5555B8BF93
:100198006D420CDD2C4480EA020281EA030382EA04
:1001A800000083EA010180EA020281EA0303362D96
:1001B80088BF30BD11F0004F4FEA01314FF4801C69
:1001C8004CEA113102D0404261EB410113F0004F7B
:1001D8004FEA03334CEA133302D0524263EB430332
:1001E80094EA050F00F0A780A4F10104D5F1200ED0
:1001F8000DDB02FA0EFC22FA05F2801841F100012B
:1002080003FA0EF2801843FA05F359410EE0A5F1FE
:1002180020050EF1200E012A03FA0EFC28BF4CF02F
:10022800020C43FA05F3C01851EBE37101F00045E5
:1002380007D54FF0000EDCF1000C7EEB00006EEBF2
:100248000101B1F5801F1BD3B1F5001F0CD349087C
:100258005FEA30004FEA3C0C04F101044FEA4452D3
:1002680012F5800F80F09A80BCF1004F08BF5FEA5A
:10027800500C50F1000041EB045141EA050130BD3A
:100288005FEA4C0C404141EB0101013C28BFB1F54C
:10029800801FE9D291F0000F04BF01460020B1FA97
:1002A80081F308BF2033A3F10B03B3F120020CDA6A
:1002B8000C3208DD02F1140CC2F10C0201FA0CF048
:1002C80021FA02F10CE002F11402D8BFC2F1200CAD
:1002D80001FA02F120FA0CFCDCBF41EA0C01904063
:1002E800E41AA2BF01EB0451294330BD6FEA0404AC
:1002F8001F3C1CDA0C340EDC04F11404C4F1200297
:1003080020FA04F001FA02F340EA030021FA04F3A8
:1003180045EA030130BDC4F10C04C4F1200220FAFF
:1003280002F001FA04F340EA0300294630BD21FA3D
:1003380004F0294630BD94F0000F83F4801306BF03
:1003480081F480110134013D4EE77FEA645C18BFF7
:100358007FEA655C29D094EA050F08BF90EA020F8E
:1003680005D054EA000C04BF1946104630BD91EA86
:10037800030F1EBF0021002030BD5FEA545C05D189
:100388004000494128BF41F0004130BD14F58004C8
:100398003CBF01F5801130BD01F0004545F0FE413C
:1003A80041F470014FF0000030BD7FEA645C1ABF71
:1003B800194610467FEA655C1CBF0B46024650EAA8
:1003C800013406BF52EA033591EA030F41F40021D4
:1003D80030BD00BF90F0000F04BF0021704730B55A
:1003E8004FF4806404F132044FF000054FF000012F
:1003F80050E700BF90F0000F04BF0021704730B5F0
:100408004FF4806404F1320410F0004548BF4042C4
:100418004FF000013EE700BF42004FEAE2014FEA19
:1004280031014FEA02701FBF12F07F4393F07F4FF4
:1004380081F06051704732F07F4208BF704793F0F7
:100448007F4F04BF41F40021704730B54FF460740A
:1004580001F0004521F000411CE700BF50EA01020D
:1004680008BF704730B54FF000050AE050EA0102B6
:1004780008BF704730B511F0004502D5404261EB26
:1004880041014FF4806404F132045FEA915C3FF467
:10049800D8AE4FF003025FEADC0C18BF03325FEA04
:1004A800DC0C18BF033202EBDC02C2F1200300FAB5
:1004B80003FC20FA02F001FA03FE40EA0E0021FADA
:1004C80002F11444BDE600BF70B54FF0FF0C4CF4C8
:1004D800E06C1CEA11541DBF1CEA135594EA0C0F7A
:1004E80095EA0C0F00F0DEF82C4481EA030621EAB5
:1004F8004C5123EA4C5350EA013518BF52EA0335F0
:1005080041F4801143F4801338D0A0FB02CE4FF0A1
:100518000005E1FB02E506F00042E0FB03E54FF0D1
:100528000006E1FB03569CF0000F18BF4EF0010EC9
:10053800A4F1FF04B6F5007F64F5407404D25FEAC5
:100548004E0E6D4146EB060642EAC62141EA555178
:100558004FEAC52040EA5E504FEACE2EB4F1FD0CBA
:1005680088BFBCF5E06F1ED8BEF1004F08BF5FEA38
:10057800500E50F1000041EB045170BD06F00046EA
:1005880046EA010140EA020081EA0301B4EB5C0497
:10059800C2BFD4EB0C0541EA045170BD41F480118F
:1005A8004FF0000E013C00F3AB8014F1360FDEBFB4
:1005B800002001F0004170BDC4F10004203C35DA90
:1005C8000C341BDC04F11404C4F1200500FA05F313
:1005D80020FA04F001FA05F240EA020001F00042B4
:1005E80021F0004110EBD37021FA04F642EB06012A
:1005F8005EEA430E08BF20EAD37070BDC4F10C0454
:10060800C4F1200500FA04F320FA05F001FA04F217
:1006180040EA020001F0004110EBD37041F1000103
:100628005EEA430E08BF20EAD37070BDC4F120050E
:1006380000FA05F24EEA020E20FA04F301FA05F276
:1006480043EA020321FA04F001F0004121FA04F21E
:1006580020EA020000EBD3705EEA430E08BF20EAEE
:10066800D37070BD94F0000F0FD101F00046400028
:1006780041EB010111F4801F08BF013CF7D041EAAA
:10068800060195F0000F18BF704703F000465200AE
:1006980043EB030313F4801F08BF013DF7D043EA7F
:1006A8000603704794EA0C0F0CEA135518BF95EA35
:1006B8000C0F0CD050EA410618BF52EA4306D1D1BC
:1006C80081EA030101F000414FF0000070BD50EADB
:1006D800410606BF1046194652EA430619D094EA65
:1006E8000C0F02D150EA013613D195EA0C0F05D14F
:1006F80052EA03361CBF104619460AD181EA0301A3
:1007080001F0004141F0FE4141F470014FF000005A
:1007180070BD41F0FE4141F4780170BD70B54FF0F5
:10072800FF0C4CF4E06C1CEA11541DBF1CEA135575
:1007380094EA0C0F95EA0C0F00F0A7F8A4EB050457
:1007480081EA030E52EA03354FEA013100F088804E
:100758004FEA03334FF0805545EA131343EA126317
:100768004FEA022245EA111545EA10654FEA0026CC
:100778000EF000419D4208BF964244F1FD0404F585
:10078800407402D25B084FEA3202B61A65EB0305E1
:100798005B084FEA32024FF480104FF4002CB6EB9E
:1007A800020E75EB030E22BFB61A754640EA0C001E
:1007B8005B084FEA3202B6EB020E75EB030E22BF5E
:1007C800B61A754640EA5C005B084FEA3202B6EB9F
:1007D800020E75EB030E22BFB61A754640EA9C005E
:1007E8005B084FEA3202B6EB020E75EB030E22BF2E
:1007F800B61A754640EADC0055EA060E18D04FEAEC
:10080800051545EA16754FEA06164FEAC30343EA8B
:1008180052734FEAC2025FEA1C1CC0D111F4801F58
:100828000BD141EA00014FF000004FF0004CB6E751
:1008380011F4801F04BF01430020B4F1FD0C88BFF0
:10084800BCF5E06F3FF6AFAEB5EB030C04BFB6EBFB
:10085800020C5FEA500C50F1000041EB045170BDEE
:100868000EF0004E4EEA113114EB5C04C2BFD4EB1B
:100878000C0541EA045170BD41F480114FF0000E9F
:10088800013C90E645EA060E8DE60CEA135594EA1B
:100898000C0F08BF95EA0C0F3FF43BAF94EA0C0F1E
:1008A8000AD150EA01347FF434AF95EA0C0F7FF493
:1008B80025AF104619462CE795EA0C0F06D152EAE7
:1008C80003353FF4FDAE1046194622E750EA4106CB
:1008D80018BF52EA43067FF4C5AE50EA41047FF4DC
:1008E8000DAF52EA43057FF4EBAE12E74A0011D28E
:1008F80012F5001211D20DD56FF47873B3EB625272
:100908000ED44FEAC12343F0004343EA505323FA7D
:1009180002F070474FF00000704750EA013002D1F2
:100928004FF0FF3070474FF0000070474FEA410228
:10093800B2F1E04324BFB3F5001CDCF1FE5C0DD935
:1009480001F0004C4FEAC0024CEA5070B2F1004F7F
:1009580040EB830008BF20F00100704711F0804F82
:1009680021D113F13872BCBF01F00040704741F447
:1009780080114FEA5252C2F11802C2F1200C10FA4B
:100988000CF320FA02F018BF40F001004FEAC1232F
:100998004FEAD32303FA0CFC40EA0C0023FA02F3D3
:1009A8004FEA4303CCE77FEA625307D150EA0133A9
:1009B8001EBF4FF0FE4040F44000704701F0004079
:1009C80040F0FE4040F40000704700BF53B94AB9F8
:1009D800002908BF00281CBF4FF0FF314FF0FF303F
:1009E80000F02AB8ADF1080C6DE904CE00F003F967
:1009F800DDF804E0DDE9022304B07047D0B5002239
:100A08000B4B06460F46FFF75FFDFFF76FFF0446E7
:100A1800FFF7E0FC0022074BFFF756FD02460B46A6
:100A280030463946FFF798FBFFF760FF2146D0BDF7
:100A38000000F03D0000F041704700BF4FF0FF3C60
:100A480006E000BF4FF0010C02E000BF4FF0010CC0
:100A58004DF804CD4FEA410C7FEA6C5C4FEA430C39
:100A680018BF7FEA6C5C1BD001B050EA410C0CBF88
:100A780052EA430C91EA030F02BF90EA020F0020EA
:100A8800704710F1000F91EA030F58BF994208BF51
:100A980090422CBFD8176FEAE37040F0010070470E
:100AA8004FEA410C7FEA6C5C02D150EA013C07D165
:100AB8004FEA430C7FEA6C5CD6D152EA033CD3D0B0
:100AC8005DF8040B704700BF8446104662468C46AA
:100AD8001946634600E000BF01B5FFF7B7FF0028DD
:100AE80048BF10F1000F01BD4DF808EDFFF7F4FF06
:100AF8000CBF012000205DF808FB00BF4DF808ED91
:100B0800FFF7EAFF34BF012000205DF808FB00BFB3
:100B18004DF808EDFFF7E0FF94BF012000205DF8D5
:100B280008FB00BF4DF808EDFFF7CEFF94BF01208A
:100B380000205DF808FB00BF4DF808EDFFF7C4FF83
:100B480034BF012000205DF808FB00BF4FEA410CCC
:100B58007FEA6C5C02D150EA013C0AD14FEA430CAF
:100B68007FEA6C5C02D152EA033C02D14FF00000EC
:100B780070474FF0010070474FEA410212F500122A
:100B880015D211D56FF47873B3EB625212D94FEACC
:100B9800C12343F0004343EA505311F0004F23FAB6
:100BA80002F018BF404270474FF00000704750EA0B
:100BB800013005D111F0004008BF6FF000407047C8
:100BC8004FF00000704700BF38B5002200230446EC
:100BD8000D46FFF793FF28B920462946BDE838405F
:100BE800FFF70CBF204605F10041FFF707FF404221
:100BF80061EB410138BD2DE9F04786468C46084631
:100C0800089E154674461946002B40F0C18085425F
:100C1800B2FA82F245D94AB1C2F1200300FA02FCC5
:100C2800954094402EFA03F343EA0C0C4FEA154E14
:100C3800A8B2230CBCFBFEF80EFB18CC08FB00F98D
:100C480043EA0C43994528D9EB1808F1FF3704D239
:100C5800994502D9A8F102072B44A3EB0903A4B2D2
:100C6800B3FBFEFC0EFB1C330CFB00F044EA034410
:100C7800A04214D92C190CF1FF3304D2A04202D996
:100C8800ACF102032C44241A43EA07401EB1D440B5
:100C9800002334607360BDE8F0874746DDE76346AC
:100CA800F1E792BB431B01214FEA154EAFB2200C6E
:100CB800B3FBFEFC0EFB1C330CFB07F840EA0343B6
:100CC800984561D9EB180CF1FF3004D2984502D948
:100CD800ACF102002B44A3EB0803A4B2B3FBFEFC67
:100CE8000EFB1C330CFB07F744EA0344A7424DD91B
:100CF8002C190CF1FF3304D2A74202D9ACF102033C
:100D08002C44E41B43EA0040C0E7C2F120039540AD
:100D1800944020FA03F12EFA03F34FEA154E90405F
:100D2800AFB20343B1FBFEFC0EFB1C10190C0CFB0D
:100D380007F841EA0041884522D969180CF1FF30CB
:100D480004D2884502D9ACF102002944A1EB08017C
:100D58009BB2B1FBFEFC0EFB1C110CFB07F743EA30
:100D680001439F420ED9EB180CF1FF3104D29F4288
:100D780002D9ACF102012B44DB1B41EA004193E7A5
:100D88006046E3E76146F7E76046A4E76346B8E7ED
:100D9800834206D916B9002108467CE7C6E900E077
:100DA800F9E7B3FA83F78FB9834201D3724508D8BC
:100DB800BEEB020460EB030301209C461EB9002130
:100DC80069E73846FAE7C6E9004CF8E7C7F1200CAE
:100DD800BB400EFA07F522FA0CF42EFA0CF1BA40D1
:100DE8001C4320FA0CF3B8404FEA144901431FFA98
:100DF80084FEB3FBF9F809FB18300B0C08FB0EFA5C
:100E080043EA00439A4540D9E31808F1FF3004D279
:100E18009A4502D9A8F102002344A3EB0A0389B238
:100E2800B3FBF9F809FB183308FB0EFE41EA03414E
:100E38008E452CD9611808F1FF3304D28E4502D9AA
:100E4800A8F10203214443EA0040A1EB0E01A0FBF4
:100E580002984145CE46434602D306D14D4504D2B9
:100E68000138B9EB020E68EB0403002EA7D0B5EBEE
:100E78000E0261EB030101FA0CFC22FA07F3F940B8
:100E88004CEA0303C6E9003199E74046C5E7434603
:100E9800D9E770B4840746D04C1E002941D0D5B29A
:100EA800034602E0611EE4B30C4603F8015B9907B0
:100EB800F8D1032C2ED9D5B245EA05250F2C45EAE1
:100EC800054519D9264603F11001103E0F2E41F8A9
:100ED800105C41F80C5C41F8085C41F8045C01F1D5
:100EE8001001F2D8A4F1100121F00F0104F00F0451
:100EF8001031032C0B440DD91E4621460439032911
:100F080046F8045BFAD8211F21F0030104310B4491
:100F180004F003042CB1D2B21C4403F8012BA34201
:100F2800FBD170BC70470C460346C2E710F8012B92
:100F380011F8013B012A28BF9A42F7D0D01A70470E
:100F4800034613F8012B002AFBD1181A0138704701
:100F580070B52DED028B82B0044629B1C4EBC402F2
:100F6800334B03EBC2039961C4EBC403304A12F854
:100F78003330304803700AF0F3FB18B102B0BDEC0F
:100F8800028B70BD0DF1060062F06BFA0028F5D1F6
:100F9800BDF8060040F4806080B2ADF8060062F04B
:100FA8005AFA0028EAD1244D28780AF069FC30EE74
:100FB800008A224E30780AF02BFD07EE900AF8EEF0
:100FC800E77A67EE887A17EE900AFFF725FA16A3F4
:100FD800D3E90023FFF778FA41EC100B00F0E0F8B2
:100FE80051EC100BFFF782FC154B1870C4EBC403CF
:100FF8000F4800EBC300337843702B788370C370BD
:1010080007230371013062F0EFF90028B6D10948CF
:101018000AF0B6FB0028B1D10122A24009490B7899
:1010280013430B70AAE700BF9A9999999999F13FD0
:1010380054040020ECB60020AC190020AB190020A5
:10104800AEEC0020B0EC002010B5082140F60140BD
:101058001DF090F9D8B104460821084435F0E0FFA6
:1010680002460F4B93F8883013F0010F0BD10D484F
:101078004FF0005166F0F6FF0022214640F601408D
:101088001DF0CAF910BD04A1D1E90001F2E76FF023
:101098006800F7E7AFF30080908800020080002026
:1010A800000000201088000230B589B00C9D00288F
:1010B80039D00446002943D0D0F8200110F0010FA0
:1010C8004BD10020C4F80801C4F80C0104F588705D
:1010D800C4F81001C4F8140104F58C70C4F81801A0
:1010E800C4F81C01002D45D02879002844D10120DE
:1010F800C4F820019FED227B8DED067B0020049033
:1011080003930290019000941F4B204645F01CF970
:1011180025B1296811B1204644F0E2FE204672F05C
:101128004EF909B030BD194C4FF4327322461849B4
:10113800184863F0F0F94FF4327120460EF094FB32
:10114800124C40F2C92322461349124863F0E3F9CE
:1011580040F2C92120460EF087FB0C4C40F2CA230E
:1011680022460E490B4863F0D6F940F2CA212046C0
:101178000EF07AFB0120BBE740F20110B8E700BF90
:10118800FFFFFFFFFFFFFFFF7D72040074380800B8
:101198003C39080004530700443908004C3908005A
:1011A80051EC100BC1F30A532DE9F041A3F2FF36BD
:1011B8000C4605468046132E2FDC002E11DA32A38A
:1011C800D3E90023FEF7CAFF00220023FFF7B4FC8F
:1011D80020B1002C50DB254352D12C46214628460D
:1011E80024E02B4F374101EA070303431ED026A30F
:1011F800D3E90023FEF7B2FF00220023FFF79CFC8F
:101208000028EBD0002C4FF00005C2BF4FF480132C
:101218003341E41824EA0704E0E7332E0ADDB6F583
:10122800806F03D102460B46FEF798FF41EC100B86
:10123800BDE8F081A3F213434FF0FF37DF40384297
:10124800F4D011A3D3E90023FEF788FF002200237E
:10125800FFF772FC0028C1D0002C0ADD142E01D142
:10126800013406E0C6F134060123B3401D44A84505
:10127800F6D825EA0705B1E700254FF00044ADE7A9
:101288000025044CAAE700BF9C7500883CE4377E23
:10129800FFFF0F000000F03F2DE9F04F1F469DB003
:1012A80000230C4682460F9218934FF00008984B83
:1012B8004FF000091D682846FFF742FE2246834684
:1012C800179213782B2B3BD02CD80D2B26D8082B14
:1012D80026D8002B2FD000230D93179E3378302B60
:1012E80074D1737803F0DF03582B65D10D9B17A9D0
:1012F800884A5046019318AB0297009319AB60F0E7
:1013080087FF10F00705044635D0062D1AD10F9B2C
:101318000BB101361E6042464B4637E0202BDAD12E
:101328000132CDE72D2BD6D101230D93531C1793F2
:101338005378002BD1D10F9B002BECD01C60EAE72F
:101348000023F2E7189A3AB135211AA873F053F935
:101358001899504661F01CFA013D199A042D06D8D7
:10136800DFE805F0190322251900DDE91A892107AC
:1013780001D549F000490F9B13B1179B0F9A1360D1
:101388000D9B002BC7D0424609F1004343EC102BBC
:101398001DB0BDE8F08FDDE91A8302F2334223F471
:1013A800801343EA0259E2E7DFF86C91DFE76FF058
:1013B80000494FF0FF38DAE7179B5A1C17925B7801
:1013C800302BF9D0002BD6D0012300E000230027D2
:1013D80004930A22179BCDE905770A931798067894
:1013E800A6F13003D9B2092924D95A46294672F000
:1013F80057FD00282DD000203246059D8346034620
:10140800652A01D0452A13D11DB9049A024392D006
:101418000025179C621C179262782B2A6ED02D2A01
:1014280072D04FF0000CA2F1300109297AD9179433
:10143800002699E00599013008291790D7BF069929
:1014480002FB073702FB01330693059B0133059323
:10145800C4E7179B03EB0B02179213F80B20059BAD
:10146800A3B383461D46A2F13003092B12D90123E9
:10147800C6E7179B01305A1C17925A78302AF8D0C1
:10148800A2F13103082B00F2EF8483460020179B5A
:1014980005460A93303A00F1010311D09B4400EB52
:1014A800050C2B460A21634512D12B180135082B50
:1014B800054419DC06990A2303FB0123069300233C
:1014C800179A1846511C17915278CCE70598D5E71A
:1014D800082B03F1010303DC069E4E430696E2E760
:1014E800102BD8BF4F43DEE70F2BDCBF0A2303FBCB
:1014F8000727E4E74FF0000B012386E74FF0000CC5
:10150800A21C1792A2788EE74FF0010CF8E700BFF3
:10151800D46A0800606A08000000F07F179A511C1E
:1015280017915278302AF9D0A2F1310108293FF6F3
:101538007FAF303A0792179A0C92179A561C179653
:101548005278A2F1300EBEF1090F38D90C99761AEB
:10155800082E44F61F6603DC07998E42A8BF0E4684
:10156800BCF1000F00D07642002D4FD104990843FA
:101578007FF401AF002B7FF4DEAE692A29D026DC88
:10158800492A26D04E2A7FF4D6AE9B4917A872F076
:10159800B0FE00283FF4CFAE179B1B78282B2FD125
:1015A8001AAA964917A872F0B8FE052828D11B9BDD
:1015B800DDF8688043F0FF4949F4E009DBE6079E5F
:1015C8000A2101FB0621A1F130020792B5E76E2A34
:1015D800D9E78B4917A872F08CFE00283FF4ABAE10
:1015E800179B17A88749013B179372F082FE10B921
:1015F800179B01331793DFF81C924FF00008BAE6E7
:10160800814801F079FA59EC108BB4E6A6EB0B038C
:1016180006982C460C93059B002B08BF2B46102DD3
:101628000593A8BF1024FEF7D5FE092D80468946EC
:1016380013DC0C9B002B3FF49EAE0C9B78DD162B25
:1016480045DC7249424601EBC3014B46D1E9000132
:10165800FEF73AFF804689468DE66C4B03EBC403E0
:1016680053E91223FEF730FF804689463846FEF7D5
:10167800B1FE02460B4640464946FEF76FFD0F2D68
:1016880080468946D5DD2C1B0C9B1C44002C25DC90
:1016980000F0A280644214F00F020AD05B4B40466F
:1016A800494603EBC203D3E90023FFF737F8804626
:1016B8008946241100F090801F2C40F3B18022232A
:1016C8004FF000084FF00009CAF8003053E6C5F1A2
:1016D80025030C9A934219DA2C1B144414F00F03B7
:1016E8000AD04A49424601EBC3014B46D1E9000101
:1016F800FEF7EAFE8046894634F00F046CD0B4F554
:101708009A7F41DD2223CAF8003074E7C5F10F053E
:101718003E4C42464B4604EBC501D1E90001FEF7B9
:10172800D3FE0C9B5D1B04EBC504D4E900238FE7B3
:101738001633A8DBABEB0602344B4046494603EBB5
:10174800C203D3E90023FEF7E9FF83E700230693EA
:101758002223DFF8C0904FF00008CAF8003018992B
:10176800504661F015F80699504661F011F8059950
:10177800504661F00DF81099504661F009F8079944
:10178800504661F005F8F6E5002324114046494625
:101798001F4F0493012C22DC0BB180468946049B21
:1017A800A9F154791A49424601EBC3014B46D1E9E4
:1017B8000001FEF789FE174B0A4680460B40164982
:1017C8008B429FD8A1F580118B4286BFDFF84C90E1
:1017D8004FF0FF3802F15479002304934BE0E207FD
:1017E80004D5D7E90023FEF76FFE0123049A64109D
:1017F800083701320492CDE769B308004C6A080043
:1018080061B3080093B3080049B208000852070002
:10181800E05107000000F07F0000A07CFFFFEF7F91
:1018280014F0100340464946AA4F18BF6A23049390
:101838000023E20704D5D7E90023FEF745FE01237C
:10184800641007F10807F4D10BB180468946049B60
:1018580043B1C9F30A524946C2F16B03002B4EDC6F
:101868006A2304930022002340464946FFF73CF9C7
:1018780000287FF424AF069B5046059A00932B4618
:101888000A9960F0EFFF109000283FF43BAF0C9BE3
:10189800ABEB060B002BB4BF5B46002311930C9BEC
:1018A80023EAE3731393002307930593109B504691
:1018B800596860F02DFF069000283FF449AF109B4F
:1018C8000C301A6903F10C010232920072F04CF9E3
:1018D8001AAA19A9504649EC108BCDE90A8961F07A
:1018E8009DFA189000283FF433AF0121504661F06B
:1018F80003F803460590D0B90023059328E71F2B6A
:101908000EDD342B4FF00008DBBF4FF0FF33C2F180
:101918004B024FF05C799340D8BF03EA01099FE777
:101928004FF0FF3202FA03F303EA080898E7199C1C
:101938001A9A002CA9BF119B139BE718139EB8BFD6
:101948001E1B049BB8BF119FE41A634B1444C2F1D9
:101958003602013C9C4280F2B0801B1B01251F2BE4
:10196800A2EB0302CDBFC4F17F449D40002404F5DF
:101978007F04C2BF04F57B44E23405FA04F407EBA4
:10198800020B049B16445F451E443B46A8BF5B46BA
:10199800B342A8BF3346002BC2BFABEB030BF61A0A
:1019A800FF1A119B002B16DD1A460599504661F067
:1019B80063F8059000289FD00146189A504660F0B9
:1019C800B1FF0E9000283FF4C3AE1899504660F05E
:1019D800DFFE0E9B1893BBF1000F71DC0C9B002BF4
:1019E80008DD139A5046069961F046F806900028DB
:1019F8003FF4ACAE002E08DD32460699504661F041
:101A080095F8069000283FF4A1AE002F08DD3A466D
:101A18000599504661F08AF8059000283FF498AE81
:101A2800069A5046189961F0EDF8079000283FF49F
:101A38008FAEC36805990E930023C36072F08EFDC4
:101A480000284BDA0E9B53EA080340F0BC80C9F328
:101A58001303002B40F0B78029F000431B0D1B0532
:101A6800B3F1D66F40F2AF80079B5B6923B9079B40
:101A78001B69012B40F3A78001220799504661F0AA
:101A880055F80599079072F069FD002840F39B808E
:101A980029F00043049A1B0D1B05002A79D0B3F1E5
:101AA800D66F6DD8B3F15C7F46D84FF000084FF081
:101AB80000092223CAF8003051E6002401255EE718
:101AC8005A461899504661F031F81890002885D187
:101AD8003EE600BFB851070002FCFFFFCB4640F0CE
:101AE800A3800E9AC9F31303002A40D09C4A93425C
:101AF80058D1049B42467BB9B8F1FF3F40F089803A
:101B0800984B99453FF424AE974BDDF8108009EACD
:101B1800030303F5801922E6934B09EA0303B3F1A3
:101B2800D46F16D918F101011BD18E4A91453FF4A3
:101B38000FAE03F5801980468C4B4046494600227B
:101B4800FEF7C2FC0B468046894603437FF407AE86
:101B5800AFE71E0D4FF0FF31C6F16B06B140884567
:101B6800E7D0002C5ED014EA0B0FE5D01EE0002B66
:101B78004AD1B8F1000F8BD064B314EA0B0F2BE0F5
:101B8800A3F580134FF0FF386FEA13596FEA09592C
:101B9800D2E7A3F580134FF0FF386FEA13596FEAC5
:101BA8000959DCE59CB114EA090F0CD040464946B6
:101BB800049A72F0BCF9DDE90A0153EC102BFEF728
:101BC800CDFA80468946049B002BB5D1C7E515EAB6
:101BD800080FEAE718EA050FF5D0049A4046494687
:101BE80072F0A5F9DDE90A0153EC102BFEF7B4FAFF
:101BF8000022002304460D46FEF776FF00287FF4F6
:101C080054AFA046A946DEE7002CB6D115EA080F66
:101C1800E2E724B114EA090F3FF4A1ADC6E718EAD8
:101C2800050FF9E72A42A0E70599079872F0B1FC79
:101C380000224FF0804355EC104B20462946FEF712
:101C480067FF00286DD00E9B002B78D1B8F1000FEC
:101C580056D1C9F31303002B59D10022444B204617
:101C68002946FEF74BFF002858D120462946002276
:101C7800404BFEF729FC04460D4605F10043089445
:101C88000993394B0BEA03031293129A3A4B9A427F
:101C9800DDE9086740F0A980ABF1547949EC108B75
:101CA80061F048F8DDE9082351EC100BFEF70CFC55
:101CB80042464B46FEF752FA0B462B4980462F4ABE
:101CC800194091425CD90B9A264B9A4203D10A9B40
:101CD80001333FF43DADDFF88C904FF0FF38189991
:101CE800504660F055FD0699504660F051FD059943
:101CF800504660F04DFD0799504660F049FDD5E526
:101D0800B8F1010F03D1B9F1000F3FF4CEAE0024B2
:101D1800174D9FED0F7B8DED087BB2E70024154D25
:101D2800ABE7144B204629460022FEF7CDFB0E9B5D
:101D380004460D46002BA0D0CDE90845A1E79FED4C
:101D4800067B55EC174B8DED087B9AE7AFF30080C7
:101D5800000000000000F0BF000000000000F03F9D
:101D6800FFFF0F00FFFFEF7F0000F07F00005039FA
:101D78000000F03F0000E03F0000E07FFFFF9F7C95
:101D880003F15479049B4E46002BA8D129F0004357
:101D9800129A1B0D1B059A42A1D120462946FEF72F
:101DA80013FFC9F31306FEF761FB0B4602462946EB
:101DB800204646EA0806FEF7CFF90E9B04460D4674
:101DC8001E434BD02EA3D3E90023FEF797FE00282D
:101DD8007FF4C5AC204629462BA3D3E90023FEF7A0
:101DE800ABFE00283FF47BAFB9E4049B13B3129B0E
:101DF800B3F1D46F1ED82046294625A3D3E9002382
:101E0800FEF786FE90B129462046FEF76FFD0128B1
:101E180038BF0120FEF7DEFA0E9B04460D46D3B903
:101E280001F1004314901593DDE9146707F1D663B7
:101E3800129A9F1A9DED0A0B60F07CFF30463946D6
:101E480053EC102BFEF740FBDDE90A23FEF786F979
:101E58008046894696E7CDE91445E5E70EA3D3E920
:101E68000023FEF74BFEBCE7652A3FF443AB452A47
:101E78003FF440AB0123FFF779BB00BFAFF300800D
:101E88009535A094FFFFDF3F35E5AF350000E03F13
:101E98000000C0FFFFFFDF419535A094FFFFCF3F53
:101EA8002DE9F04F476A97B08346209E08910C921F
:101EB800129355EC104B8DED000B7FB910205FF09D
:101EC8003DF90246CBF8240020B9A74BEA21A748E0
:101ED8005FF004F9C0E901770760C760DBF82430D8
:101EE800196859B15A680123584693404A608B6073
:101EF80060F04EFCDBF8243000221A602B1EB7BFBE
:101F080023F00043002301220193A8BF3360019FFF
:101F1800974BB8BF3260BB4319D142F20F73129A84
:101F28001360C7F31303234300F0DB85219B53B9E8
:101F3800904B21E0904B03930833219A1360039848
:101F480017B0BDE8F08F8B4B03930333F5E79DED96
:101F5800007B0022002351EC170B8DED0A7BFEF766
:101F6800C3FD804650B10123129A1360219B13B11F
:101F7800824B219A1360824B0393E0E7C7F30A561A
:101F880014AA15A958469DED0A0B60F047FF029068
:101F9800002E76D00B9BA6F2FF36CDF84C80C3F30B
:101FA800130343F07F53DDE90A0143F44013194654
:101FB8000022744BFEF7D0F865A3D3E90023FEF79F
:101FC80083FA65A3D3E90023FEF7C8F804460D4653
:101FD8003046FEF70FFA62A3D3E90023FEF774FA3E
:101FE80002460B4620462946FEF7B8F804460D4639
:101FF800FEF7C2FD00220746002320462946FEF7C9
:102008007DFD40B13846FEF7F5F922462B46FEF72E
:102018006BFD00B9013F162F52D85B4B03EBC7038A
:10202800DDE90A01D3E90023FEF768FD002849D05D
:10203800013F00231193149B9B1B5A1E4CBFC3F1F5
:1020480001030023079245BF0693002306930793D5
:10205800002F39DB079B10973B4407930023099314
:10206800089B092B66D8052BC5BF043B0024012417
:102078000893089B023B032B67D8DFE803F02D3A4F
:102088003859DDE914631E4406F23243202BC9BFD8
:10209800C3F14003C3F120039F4006F21243D8BFA7
:1020A80004FA03F006F1FF36C4BF24FA03F347EA43
:1020B8000300FEF78FF90122A1F1F873139276E776
:1020C8000123B7E71190B6E7069BDB1B06937B421B
:1020D800099300231093C3E700230D930C9B002B57
:1020E80056DC012399461A4604930C920CE001230E
:1020F800F3E700230D930C9BFB1803F101090493EC
:102108004B46012BB8BF0123DBF824000021042231
:1021180002F114059D423FD94160584660F0F8FA33
:10212800039000283BD1194B02464FF4D571CEE6F7
:102138000123DFE7012400230D9408934FF0FF33B8
:102148000022994604931223CFE701230D93F5E764
:1021580061436F63A787D23FB3C8608B288AC63FA5
:10216800FB799F501344D33F9DB30800B4B30800D4
:102178000000F07F99B3080090B308006DB3080021
:102188006CB308000000F83F0852070028B40800A4
:102198000C9B99460493B7E701315200B8E7DBF886
:1021A8002430B9F10E0F039A1A606FD8002C6DD045
:1021B800002F36DD07F00F02A04BF8054FEA271471
:1021C80003EBC20393ED007B8DED0E7B17D59C4B83
:1021D80004F00F044FF00308D3E90823DDE90A01EE
:1021E800FEF79CFACDE90001954D5CB9DDE90E23B7
:1021F800DDE90001FEF792FACDE900012BE04FF08E
:102208000208F1E7E10709D508F10108DDE90E0147
:10221800D5E90023FEF758F9CDE90E016410083519
:10222800E3E700F007817C42844B854D4FF00208BC
:1022380004F00F02241103EBC203DDE90A01D3E91C
:102248000023FEF741F90023CDE90001002C40F0FE
:10225800E580002BD0D1119BDDE90045002B00F073
:102268004C810022774B20462946FEF747FC002880
:1022780000F04381B9F1000F00F03F81049B002B6F
:1022880000F3E480DDE90A34CDE90034159B002B26
:1022980002DB0E2F40F342820D9A002A40F067823B
:1022A800099C0025DDF81880B8F1000F0DD0079BB8
:1022B800002B0ADD4345069AA8BF4346D21AA8EB6D
:1022C80003080692079AD31A0793099B0BB30D9B31
:1022D800002B00F0A682002C00F0A182294622469D
:1022E800584660F0C9FB029A01460546584660F018
:1022F80019FB02990646584660F04AFA099B1B1BCF
:10230800099300F09182099A3146584660F0B4FB6F
:1023180002900121584660F0EFFA109B0446002B0A
:1023280000F084821A460146584660F0A5FB089BD7
:102338000446012B03DC009B002B00F07C82002666
:10234800236904EB8303186972F0B9F8C0F120001F
:102358001096079B184410F01F0000F09182C0F1FE
:102368002003042B40F38182C0F11C00069B034428
:1023780080440693079B03440793069B002B05DDC7
:102388001A460299584660F0D1FB0290079B002B31
:1023980005DD21461A46584660F0C8FB0446119BE5
:1023A800002B00F076822146029872F0D7F80028B8
:1023B80080F26F8200230A220299584660F00AFAD6
:1023C8000D9B7E1E0290002B00F05C8200232946A4
:1023D8000A22584660F0FEF9049B0546002B03DCF0
:1023E800089B022B00F35E82B8F1000F05DD294639
:1023F8004246584660F09AFB0546109B002B00F0B9
:10240800D0826968584660F083F90746002840F092
:102418007F820D4B024640F2EA2158E5E20706D5D5
:1024280008F10108D5E90023FEF74EF801236410EE
:1024380008350BE74FF002080DE700BF0852070008
:10244800E05107000000F03F28B4080020460022B1
:10245800AC4B2946FEF738F87E1E08F10108049CAB
:10246800CDE900014046FDF7C5FFDDE90023FEF791
:102478002BF8A54B0022FDF771FEA1F15073CDE9B1
:102488000E010F93002C3BD10022A04BDDE9000187
:10249800FDF762FE02460B46CDE90023DDE90E2377
:1024A800FEF74AFB002840F05781DDE90E2101F1D3
:1024B8000043DDE90001FEF721FB00283FF4E2AE0E
:1024C800002425460C9BDDF80CA0DE434FF00008E5
:1024D8002146584660F05CF9002D00F0A980B8F15B
:1024E800000F05D0A84503D04146584660F050F982
:1024F8002946584660F04CF99AE03E464C46B1E70A
:10250800834B03EBC40353E90201039B1C440D9B5B
:10251800002B4AD002460B4600207E49FEF7FEF803
:10252800DDE90E23FDF718FEDDF80CA0CDE90E015C
:10253800DDE90001FEF720FB0546FDF75BFF0246DB
:1025480030350B46DDE90001FDF706FE0AF8015BB0
:1025580002460B46CDE90001DDE90E01FEF7ECFA73
:10256800002865D100206C49DDE90023FDF7F4FD62
:1025780002460B46DDE90E01FEF7DEFA002840F0C0
:102588000D81A24500F0EA8000225E4BDDE90E01D4
:10259800FDF79AFF00225B4BCDE90E01DDE9000152
:1025A800FDF792FFCDE90001C2E7DDE90E23FDF753
:1025B8008BFFA046DDF80CA0CDE90E01DDE9000196
:1025C800FEF7DAFA0546FDF715FF024630350B46E9
:1025D800DDE90001FDF7C0FD0AF8015B02460B4684
:1025E800A245CDE900234FF0000223D1494BDDE994
:1025F8000E01FDF7B3FD02460B46DDE90001FEF7CB
:102608009BFA002840F0CA8000204249DDE90E23E9
:10261800FDF7A2FD02460B46DDE90001FEF76EFA62
:1026280070B1C24608F1FF381AF8013C302BF8D0D7
:10263800374655E0334BFDF747FFCDE90001BDE7CD
:10264800DDE90A34CDE90034159B002BFFF628AEEE
:102658000E2F3FF725AE2E4B03EBC70393ED007B00
:102668000C9B002B8DED047B02DAB9F1000F64D0CE
:10267800DDF80CA0DDE90045DDE904232046294604
:10268800FEF74CF8FEF778FA0646FDF7B3FEDDE9EB
:102698000423FDF719FF0246204606F130040B46D5
:1026A8002946FDF759FD0AF8014B039C02460B46E3
:1026B800AAEB0404A14540F08280FDF74FFD0446D3
:1026C8000D46DDE90423FEF737FA002865D12046D8
:1026D8002946DDE90423FEF707FA08B1F3075CD4BD
:1026E8000299584660F054F8002301378AF8003000
:1026F800129B1F60219B002B3FF421ACC3F800A064
:102708001DE400BF0000244000001C4000001440ED
:10271800085207000000E03F0000F03FA24B03EB27
:10272800C70393ED007B0C9B002B8DED047B9FDA98
:10273800B9F1000F9CDC7FF4C3AE00229B4BDDE9AE
:102748000401FDF7C1FEDDE90023FEF7EBF90446BD
:1027580000287FF4B5AE3E462546B4E0DDE90A34EC
:10276800CDE90034159B002B01DB0E2FD6DD089A2E
:10277800012A36DC139A82B303F23343099CDDF84D
:102788001880069A012158461A440692079A1A4454
:10279800079260F0B1F8054686E53E4653469A46EC
:1027A80013F8012D392A06D1039A9A42F7D130221B
:1027B800039901360A701A7801321A7038E7002234
:1027C8007B4BFDF781FE0022002304460D46FEF7F1
:1027D8008BF900283FF450AF82E7149BC3F136030E
:1027E800CCE709F1FF34099BA34208DBB9F1000FDC
:1027F800A3EB04040EDBDDF818804B46C1E7099B08
:10280800109AE31A0994DDF8188000241A444B46FC
:102818001092B6E7069BA3EB09080023B1E7029ED6
:1028280071E5099A029970E5029672E5089B012BF9
:1028380017DC009BABB9019BC3F313039BB9019B46
:1028480023F00046360D360536B1069B01260133C6
:102858000693079B01330793109B002B7FF470AD01
:102868001096012075E50026F6E73FF486AD1C3387
:10287800069A1A4498440692079A1A4407927CE5E5
:102888000346F4E7049B002B2BDC089B022B09DC96
:1028980027E0B9F1000F1DDC089B022B1ADD3E462C
:1028A800CDF81090049B002B7FF40CAE2146052236
:1028B80058465FF08FFF01460446029871F04EFEBD
:1028C80000287FF7FFADDDF80CA0312301360AF8A8
:1028D800013BFBE50D9B3E46CDF81090002B7FF4A5
:1028E80083AD039F2146029871F046FB039B00F1DC
:1028F8003009049A07F8019BFB1A9A4240F3CB80EF
:1029080000230A22029958465FF064FF0290E9E723
:102918002A6905F10C010C300232920071F024F999
:1029280001223946584660F001F9039BA84605463E
:1029380003F1010ADDE9032313440793009B03F025
:10294800010309930AF1FF3321460298049371F0B9
:1029580013FB4146069000F13009029871F0FEFD24
:102968002A4621460746584660F04CF9C268014697
:1029780002B358465FF00CFF002F3ADA01220299A1
:10298800584660F0D3F82146029071F0E7FD002820
:1029980003DC29D119F0010F26D0B9F1390F1DD167
:1029A80032E02846C1E700BF085207000000144083
:1029B800000024400A90029871F0D0FD0A990C900A
:1029C80058465FF0E5FE0C9A5ABB089B53B9099B21
:1029D80043B9B9F1390F17D0002F05DD069B03F174
:1029E800310901E0002F2ADADDF810A00AF8019B6E
:1029F8006EE5089B3B4304D1009B03F00103002BC9
:102A0800BCD0B9F1390F36D1049F392307F8013BFF
:102A1800BA46013F1AF8013C392B5AD001333B70B2
:102A280056E5002F06DB089B3B4306D1009B03F0CD
:102A3800010313B9002AA1DCD6E7002AE1DC079BD1
:102A480057460AF8019C53452ED000230A220299C2
:102A580058465FF0BFFEA84502904FF000034FF0C4
:102A68000A02414658460BD15FF0B4FE804605463F
:102A78000AF1010A66E7DDF810A009F10109B5E7D6
:102A88005FF0A8FE2946804600230A2258465FF0D8
:102A9800A1FE0546ECE7049B4FF00008002BCCBFD5
:102AA8001F460127039B1F4401220299584660F0E4
:102AB8003DF82146029071F051FD0028A8DC02D1B2
:102AC80019F0010FA4D1BA4617F8013D302BFAD0FE
:102AD800FEE4039BBB429BD13123039A013613705A
:102AE800F6E4219B002B7FF425AA014BFFF744BA9B
:102AF80090B30800000000009FED010B704700BF75
:102B0800000000000000F87F03292FD8DFE801F05B
:102B1800020F1C2922B1D0F8183403F003031370F4
:102B2800D0F8183413F4803F2ED10020704722B11A
:102B3800D0F80C3403F001031370D0F80C3413F4FC
:102B4800803F23D10020704722B1D0F85C3403F0D5
:102B580001031370D0F85C3413F4803F18D10020BF
:102B68007047D0F85404C0F30040704710B5094CC2
:102B780040F2473322460849084861F0CCFC40F24D
:102B8800473120460CF070FE012070470120704745
:102B980001207047D05207001C6E0700045307003D
:102BA80010B588B00DF1070105200AF0C3F80446F6
:102BB80060B99DF807304BB1194B1B6803F0070348
:102BC800022B06D8002108461CF072FA204608B0ED
:102BD80010BD144B079302238DF8003000238DF8A5
:102BE80001308DF802308DF80330009A06921946AC
:102BF80063F3000163F3410163F3820163F3C501E9
:102C0800032262F38811082262F3522163F3DE4142
:102C180063F3DF7106AA024810F0C4FBD2E700BFD5
:102C2800F41A002024530700B0B582B000AF2F4B30
:102C38000122D3E8EF1FC3E8E02F0028F9D164F0A0
:102C480052FAFFF7ADFF0146002846D0284B1B6813
:102C580013F0070F3BD06C4688B06B4613F1100297
:102C68003ED010206AB18446042801DD214D5D6103
:102C7800BCF1080F00DD9961BCF10C0F01DD9D214D
:102C8800D9610F282FDD4FF0100C3AB104213971AA
:102C980000217971B971F9717868186100216FF3B1
:102CA80000016FF341016FF382016FF3C501012346
:102CB80063F388110CF47D7C6CF352216FF3DE41D1
:102CC8006FF3DF7100230A4810F06CFBA546404003
:102CD80080F311884FF0030002DF0837BD46B0BD0E
:102CE8006FF00040BEE76FF01B0CCEE78C4400206D
:102CF800F41A002038530700F0B583B000AF60F035
:102D080010FB002849D00146B24B1B6813F0070F8F
:102D18003DD06C4688B06B4613F1100200F0BF82BC
:102D280010206AB18446042801DDAB4D5D61BCF119
:102D3800080F00DD9961BCF10C0F01DDA821D961F4
:102D48000F2840F3AF824FF0100C3AB104213971CB
:102D580000217971B971F9717868186100216FF3F0
:102D680000016FF341016FF382016FF3C501012385
:102D780063F388110CF47D7C6CF352216FF3DE4110
:102D88006FF3DF710023934810F00CFBA546404019
:102D980080F311884FF0030002DF0AF059FD014665
:102DA800002848D08B4B1B6813F0070F3DD06C46AA
:102DB80088B06B4613F1100200F0778210206AB1D8
:102DC8008446042801DD844D5D61BCF1080F00DDF7
:102DD8009961BCF10C0F01DDAB21D9610F2840F3DB
:102DE80067824FF0100C3AB10421397100217971D2
:102DF800B971F9717868186100216FF300016FF3F8
:102E080041016FF382016FF3C501012363F3881158
:102E18000CF47D7C6CF352216FF3DE416FF3DF71AC
:102E280000236C4810F0BEFAA546404080F3118894
:102E38004FF0030002DF09F09FFF0146002848D049
:102E4800644B1B6813F0070F3DD06C4688B06B4687
:102E580013F1100200F02F8210206AB18446042872
:102E680001DD5D4D5D61BCF1080F00DD9961BCF1CC
:102E78000C0F01DDAE21D9610F2840F31F824FF0FE
:102E8800100C3AB10421397100217971B971F971C5
:102E98007868186100216FF300016FF341016FF347
:102EA80082016FF3C501012363F388110CF47D7C63
:102EB8006CF352216FF3DE416FF3DF710023454855
:102EC80010F070FAA546404080F311884FF00300D7
:102ED80002DF0CF051F860F00CFA0146002848D0E7
:102EE8003C4B1B6813F0070F3DD06C4688B06B460F
:102EF80013F1100200F0E58110206AB1844604281D
:102F080001DD354D5D61BCF1080F00DD9961BCF153
:102F18000C0F01DDB321D9610F2840F3D5814FF0A3
:102F2800100C3AB10421397100217971B971F97124
:102F38007868186100216FF300016FF341016FF3A6
:102F480082016FF3C501012363F388110CF47D7CC2
:102F58006CF352216FF3DE416FF3DF7100231D48DC
:102F680010F020FAA546404080F311884FF0030086
:102F780002DF00F0E1FA014600284ED0154B1B682D
:102F880013F0070F43D06C4688B06B4613F110025C
:102F980000F09D8110206AB18446042801DD0E4DA1
:102FA8005D61BCF1080F00DD9961BCF10C0F01DD1A
:102FB800B621D9610F2840F38D814FF0100C6AB10A
:102FC8000421397100217971B971F9717868186132
:102FD80004E000BFF41A00203853070000216FF303
:102FE80000016FF341016FF382016FF3C501012303
:102FF80063F388110CF47D7C6CF352216FF3DE418E
:103008006FF3DF710023B54810F0CCF9A5464040B6
:1030180080F311884FF0030002DF0BF0A1FE014698
:10302800002848D0AD4B1B6813F0070F3DD06C4605
:1030380088B06B4613F1100200F0588110206AB175
:103048008446042801DDA64D5D61BCF1080F00DD52
:103058009961BCF10C0F01DDB921D9610F2840F34A
:1030680048814FF0100C3AB104213971002179716F
:10307800B971F9717868186100216FF300016FF375
:1030880041016FF382016FF3C501012363F38811D6
:103098000CF47D7C6CF352216FF3DE416FF3DF712A
:1030A80000238E4810F07EF9A546404080F3118831
:1030B8004FF0030002DF8B480BF03AFE0146002870
:1030C80048D0864B1B6813F0070F3DD06C4688B07C
:1030D8006B4613F1100200F00F8110206AB184468C
:1030E800042801DD7E4D5D61BCF1080F00DD9961AA
:1030F800BCF10C0F01DDBC21D9610F2840F3FF8022
:103108004FF0100C3AB10421397100217971B9716D
:10311800F9717868186100216FF300016FF34101BC
:103128006FF382016FF3C501012363F388110CF477
:103138007D7C6CF352216FF3DE416FF3DF71002366
:10314800664810F02FF9A546404080F311884FF0EB
:10315800030002DF634BDB6813F4FE6F40F0D2809C
:103168000BF0C4F90146002848D05C4B1B6813F0EB
:10317800070F3DD06C4688B06B4613F1100200F083
:10318800158110206AB18446042801DD544D5D6123
:10319800BCF1080F00DD9961BCF10C0F01DDC621FF
:1031A800D9610F2840F305814FF0100C3AB1042182
:1031B800397100217971B971F97178681861002144
:1031C8006FF300016FF341016FF382016FF3C501E3
:1031D800012363F388110CF47D7C6CF352216FF3A7
:1031E800DE416FF3DF7100233C4810F0DBF8A546A1
:1031F800404080F311884FF0030002DF3A4804F0A2
:103208006DFA0146002800F0E280344B1B6813F089
:10321800070F3DD06C4688B06B4613F1100200F0E2
:10322800CB8010206AB18446042801DD2C4D5D61F5
:10323800BCF1080F00DD9961BCF10C0F01DDCF2155
:10324800D9610F2840F3BB804FF0100C3AB104212C
:10325800397100217971B971F971786818610021A3
:103268006FF300016FF341016FF382016FF3C50142
:10327800012363F388110CF47D7C6CF352216FF306
:10328800DE416FF3DF710023144810F08BF8A54678
:10329800404080F311884FF0030002DF97E06FF0A1
:1032A80000403EE56FF01B0C4FE56FF0004086E5EF
:1032B8006FF01B0C97E56FF00040CEE56FF01B0C2C
:1032C800DFE56FF0004018E66FF01B0C29E66FF0A1
:1032D800004060E66FF01B0C71E600BFF41A002096
:1032E8003853070078440020312C00006FF000406C
:1032F800A5E66FF01B0CB6E66FF00040EEE66FF047
:103308001B0CFFE60BF0EEF910F1130F3FF428AF9A
:1033180000283FF425AF854B1B6813F0070F38D002
:103328006D4688B06B4613F1100239D010215AB19E
:103338000C46042901DD7E4E5E61082C00DD986193
:103348000C2C01DDC120D8610F292CDD10243AB1E5
:103358000421397100217971B971F971786818619E
:1033680000216FF300016FF341016FF382016FF3E6
:10337800C501012363F3881104F47D7464F35221B9
:103388006FF3DE416FF3DF710023684810F00AF82D
:10339800AD46404080F311884FF0030002DFDFE6BE
:1033A8006FF00041C3E76FF01B04D0E76FF00040F7
:1033B800E8E66FF01B0CF9E66FF0004032E76FF0BB
:1033C8001B0C43E740F6CD40002145F0C1FD594BA9
:1033D800D3E8AF3F002BF5D05FF0B7FF01460028D8
:1033E80047D0524B1B6813F0070F3CD06C4688B08F
:1033F8006B4613F1100200F08D8010206AB18446EC
:10340800042801DD4A4D5D61BCF1080F00DD9961BA
:10341800BCF10C0F01DDD721D9610F287DDD4FF0FC
:10342800100C3AB10421397100217971B971F9711F
:103438007868186100216FF300016FF341016FF3A1
:1034480082016FF3C501012363F388110CF47D7CBD
:103458006CF352216FF3DE416FF3DF7100233348C1
:103468000FF0A0FFA546404080F311884FF00300FD
:1034780002DF01F0C5F902F0DBFA0146002846D068
:103488002A4B1B6813F0070F3BD06C4688B06B467D
:1034980013F1100244D010206AB18446042801DDDB
:1034A800234D5D61BCF1080F00DD9961BCF10C0F83
:1034B80001DDDC21D9610F2835DD4FF0100C3AB160
:1034C8000421397100217971B971F971786818612D
:1034D80000216FF300016FF341016FF382016FF375
:1034E800C501012363F388110CF47D7C6CF3522130
:1034F8006FF3DE416FF3DF7100230C480FF052FFCA
:10350800A546404080F311884FF0030002DF02F027
:103518002DFAFCE76FF0004070E76FF01B0C80E7B6
:103528006FF00040B8E76FF01B0CC8E7F41A0020F2
:10353800385307008C44002090B591B000AF6C4B15
:103548001B6803F00703022B73D96C4600233B72F8
:1035580002237B720122BA720322FA723B7304239C
:103568007B738CB0EC461CF110022DD04FF01A0E74
:103578002AB1BEF1040F02DD5E4BCCF814300023F3
:103588003B7202237B722AB1BEF1080F02DD5A4B4F
:10359800CCF818300123BB720323FB722AB1BEF1A9
:1035A8000C0F02DD554BCCF81C3002233B7304236F
:1035B8007B73B2B1BEF1100F02DD514BCCF8203055
:1035C8000CF1240300210AE06FF0004ED0E701F16E
:1035D8004000384410F8380C03F8010B0131052974
:1035E800F5D9BEF1190F39DD1A234AB10521397110
:1035F80000217971B9710321F9717868CCF810004C
:1036080000216FF300016FF341016FF382016FF343
:10361800C501032060F38811C3F3090363F3522142
:103628006FF3DE416FF3DF71002331480FF0BAFE0C
:10363800A5462F4B1B6803F00703022B11D831480E
:103648000FF098FC044628B9294B1B6803F00703C0
:10365800022B29D820464437BD4690BD6FF01B0386
:10366800C3E7294B7B6202233B7200237B72BB7248
:10367800FB72BA683A62194663F3000163F34101C9
:1036880063F3820163F3C501032262F38811082200
:1036980062F3522163F3DE4163F3DF7107F1200225
:1036A80013480FF07FFECAE7184BFB6302233B72F7
:1036B80000237B72BB72FB72BA68BA63194663F364
:1036C800000163F3410163F3820163F3C50103223F
:1036D80062F38811082262F3522163F3DE4163F337
:1036E800DF7107F1380202480FF05CFEB2E700BF55
:1036F800CC1A002064530700FC530700B05307009E
:103708002454070048540700B8530700D45307004F
:10371800044B01221A7004499960022119731A7125
:10372800704700BF30450020007701002DE9F04FB9
:10373800ADF69C3D02AF0023C7F8843B98462BE1C9
:103748006FF000405FE00F2870DD10213AB10420CF
:10375800387700207877B877F877F86918616FF3C9
:1037680000066FF341066FF382066FF3C506012367
:1037780063F3881601F47D7363F352266FF3DE4614
:103788006FF3DF760023314685480FF00BFEC54600
:10379800404080F311884FF0030002DF04EB44003F
:1037A80007F5396303EB84037E4A126853F8341C27
:1037B80007F5777303EB801070F0D6F929467A483D
:1037C8000BF044FE0134092C33DC07F65C3303EBC1
:1037D80084054FF0FF324FF0FF33CDE90023714AE3
:1037E800294671480BF0FEFD01460028D6D06C4BE7
:1037F8001B6813F0070FCBD0E84688B002AB13F173
:1038080010029DD01020002A9DD08446042803DD94
:10381800DFF8A8E1C3F814E0BCF1080F00DD9961F6
:10382800BCF10C0F8FDD7621D9618CE76FF01B019D
:103838008CE7D7F80C805D4B1B79002B00F0A1803A
:103848005B4B1B68002B40F0BB8007F68433594A5A
:103858004FF4F06107F5777002F0FCFD044600288C
:1038680000F08F804E4B1B6813F0070F41D06D4658
:1038780000233B7702237B7788B002A911F110025D
:1038880000F05B814FF00E0C22B1BCF1040F01DD9A
:10389800494B4B6100233B7602237B76002A40F09C
:1038A8004F81BCF10D0F40F35E810E2342B103201E
:1038B800387700207877B8770120F877F8690861B9
:1038C8006FF300096FF341096FF382096FF3C509BC
:1038D800012161F38819C3F3090363F352296FF3D4
:1038E800DE496FF3DF79002349462D480FF05AFD72
:1038F800AD462B4B1B6813F0070F3CD06D4688B0C4
:1039080002AB13F1100200F0318110216AB10846B0
:10391800042903DDDFF8A4C0C3F814C0082800DDBB
:103928009C610C2801DD9020D8610F2940F321818A
:1039380010213AB10420387700207877B877F877E3
:10394800F86918616FF3000A6FF3410A6FF3820A8E
:103958006FF3C50A012363F3881A01F47D7363F3D7
:10396800522A6FF3DE4A6FF3DF7A002351460C4880
:103978000FF018FDAD46404080F311884FF003006A
:1039880002DFB8F57A7F00F0F78008F10108074BED
:103998001B79002B40F049810024C7F80C8012E7FE
:1039A800281A0020984400202802002030450020D2
:1039B800CC4400209044002054ED07003853070001
:1039C8009D4A00929D4A4FF4707107F11C000BF05C
:1039D800DFFA034600284AD0994A126812F0070F06
:1039E8003FD06C4688B002A911F1100200F099800E
:1039F80010206AB10546042803DDDFF850C2C1F87B
:103A080014C0082D00DD8B610C2D01DD8523CB61F1
:103A18000F2840F3898010233AB10420387600201B
:103A28007876B876F876B8690861B9686FF30001F6
:103A38006FF341016FF382016FF3C501084601215D
:103A480061F38810014603F47D7363F352216FF329
:103A5800DE416FF3DF71B960002379480FF0A2FCF3
:103A6800A546404080F311884FF0030002DF07F1BC
:103A78001403009307F5777310224FF4707107F160
:103A88001C005FF056FD034600283FF4DEAE6C4A8A
:103A9800126812F0070F3DD06C4688B002A911F1E8
:103AA800100244D010206AB10546042803DDDFF86F
:103AB8009CC1C1F814C0082D00DD8B610C2D01DDFF
:103AC8008A23CB610F2835DD10233AB104203876DC
:103AD80000207876B876F876B869086179686FF367
:103AE80000016FF341016FF382016FF3C5010846CE
:103AF800012161F38810014603F47D7363F35221B9
:103B08006FF3DE416FF3DF71796000234C480FF0EB
:103B180049FCA546404080F311884FF0030002DFBE
:103B280093E66FF0004064E76FF01B0374E76FF0F3
:103B38000040B8E76FF01B03C7E76FF0004CA3E63F
:103B4800BCF1080F01DD3F4B8B6101F11C03002024
:103B580006E007F1180E1EF800E003F801EB01304B
:103B68000128F6D99DE66FF01B039FE66FF0004130
:103B7800CCE66FF01B01DCE607F6883207F68C31DD
:103B880031480BF08BFC804600283FF400AF2C4BEB
:103B98001B6813F0070F39D06C4688B002AB13F1DD
:103BA80010023CD0102162B10846042901DD274DDE
:103BB8005D61082801DDC3F818800C2801DD972015
:103BC800D8610F292EDD10213AB104203877002062
:103BD8007877B877F877F86918616FF3000B6FF3A7
:103BE800410B6FF3820B6FF3C50B012363F3881B43
:103BF80001F47D7161F3522B6FF3DE4B6FF3DF7BC2
:103C0800002359460E480FF0CDFBA546404080F3EF
:103C180011884FF0030002DF4FF00008B7E66FF09D
:103C28000041C0E76FF01B01CEE7D7F8841B084BB3
:103C3800186801F03DFEAFE694440020D04400200F
:103C4800281A00204C540700280200203853070087
:103C58009044002010B9354B18607047B0B582B059
:103C680000AFB7EE000A4BF6803382B22F493048D6
:103C78000BF0A2FF0146002846D02E4B1B6813F01C
:103C8800070F3BD06C4688B06B4613F1100243D047
:103C980010206AB18446042801DD274D5D61BCF11E
:103CA800080F00DD9961BCF10C0F01DDB121D9616C
:103CB8000F2834DD4FF0100C3AB10421397100217E
:103CC8007971B971F9717868186100216FF3000191
:103CD8006FF341016FF382016FF3C501012363F3B1
:103CE80088110CF47D7C6CF352216FF3DE416FF385
:103CF800DF7100230F480FF055FBA546404080F3C5
:103D080011884FF0030002DF084B1B68602B09D8AD
:103D180000200837BD46B0BD6FF00040B9E76FF02E
:103D28001B0CC9E76FF00B00F3E700BFCC44002081
:103D3800D0440020281A0020385307002DE9F0430A
:103D480095B06B4B1B7C002B00F0CF800746884654
:103D5800914606AA07A967480BF0A0FB044668BB72
:103D68009DF81860C6F11E06F6B2092E0ED9092C68
:103D780028DC4FF0FF324FF0FF335F4901EB84013D
:103D88005C480BF009FAC0B90134F0E70546C6F102
:103D98000A03AB42EBDD00220023CDE9002304AA8D
:103DA80003A954480BF01EFB10F1230FDFD003A921
:103DB80050480BF04BFB0135E9E70446204615B0A7
:103DC800BDE8F08305AB00934C4B4A464146384664
:103DD80002F084FC044608B9054651E0484B1B68CC
:103DE80013F0070FEAD0474B139302238DF81030D6
:103DF80000238DF811308DF812308DF81330049AA5
:103E08001292194663F3000163F3410163F38201DF
:103E180063F3C501012262F38811082262F352217B
:103E280063F3DE4163F3DF7112AA35480FF0BAFA83
:103E3800C4E7354B0D9302238DF8103000238DF81D
:103E480011308DF812308DF81330049A0C921946FF
:103E580063F3000163F3410163F3820163F3C50176
:103E6800012262F38811082262F3522163F3DE41D2
:103E780063F3DF710CAA22480FF094FA1DE00135B4
:103E8800092D1CDC1C4E1D4B1B6805EB4501C0278A
:103E98003A4603EB811156F825006FF065FE3A4665
:103EA80006EB850113480BF0A1F906460028E6D079
:103EB800134B1B6813F0070FBBD134467EE7134B37
:103EC8001B68B3F57A7F03D00133104A136075E796
:103ED80006AA07A907480BF0E1FA044600287FF470
:103EE8006DAF0A4B00221A6068E74FF0FF3465E7B0
:103EF8003045002090020020A4440020A044002067
:103F0800281A00205C540700705407009C440020C5
:103F1800F0B58BB008AFFFF7FBFB8F4B93F864301D
:103F2800002B43D08D4B93F86430002B00F0E880D1
:103F38008B4B1A6900920FCB02F044FE044600280E
:103F480000F00D82874B1B6813F0070F00F0C0814B
:103F58006D4600233B7102237B7188B0AC4615F196
:103F6800100200F08A810E2022B1042802DD7E4B67
:103F7800CCF8143000233B7002237B70002A00F039
:103F88007F81082802DD794BCCF818300CF11C032E
:103F98000021012900F2748101F1080606EB070EE1
:103FA8001EF808EC03F801EB0131F2E76A480BF060
:103FB80053FB05460028B5D06A4B1B6813F0070F62
:103FC8004FD06E4600233B7102237B7188B0344684
:103FD80016F1100212D00E201AB1042801DD624B2E
:103FE800636100233B7002237B70A2B1082801DDC6
:103FF8005F4BA36104F11C0300210AE06FF000404D
:10400800EAE701F1080CBC441CF808CC03F801CB22
:1040180001310129F5D90D2869DD0E2342B10321AB
:10402800397100217971B9710121F97178682061BC
:1040380000216FF300016FF341016FF382016FF309
:10404800C501012060F38811C3F3090363F352210A
:104058006FF3DE416FF3DF71002342480FF0A2F9DE
:10406800B546404B1B6813F0070F39D06E4688B031
:10407800334616F110023DD0102162B108460429DA
:1040880001DD3C4C5C61082800DD9D610C2802DDE7
:1040980040F21F10D8610F292FDD10243AB10421F6
:1040A800397100217971B971F97178681861002145
:1040B8006FF300016FF341016FF382016FF3C501E4
:1040C800012363F3881104F47D7464F352216FF3C0
:1040D800DE416FF3DF71002322480FF063F9B54624
:1040E800404080F311884FF0030002DF1AE76FF0B9
:1040F8001B0393E76FF00041BFE76FF01B04CDE7A8
:1041080016480BF0A9FA054600283FF411AF154BE5
:104118001B6813F0070F61D06E4600233B71022322
:104128007B7188B0344616F1100212D00E201AB1F5
:10413800042801DD0C4B636100233B7002237B7074
:1041480032B3082801DD0C4BA36104F11C030021E4
:104158001CE06FF00040EAE79002002028020020EF
:1041680030450020281A002054ED0700C0540700ED
:104178008854070038530700A454070001F1080CBD
:10418800BC441CF808CC03F801CB01310129F5D94E
:104198000D2869DD0E2342B103213971002179719F
:1041A800B9710121F9717868206100216FF300016C
:1041B8006FF341016FF382016FF3C501012060F3D2
:1041C8008811C3F3090363F352216FF3DE416FF3E0
:1041D800DF71002393480FF0E5F8B546914B1B6853
:1041E80013F0070F39D06E4688B0334616F1100227
:1041F8003DD0102162B10846042901DD8A4C5C617A
:10420800082800DD9D610C2802DD4FF49270D8610A
:104218000F292FDD10243AB1042139710021797159
:10422800B971F9717868186100216FF300016FF3B3
:1042380041016FF382016FF3C501012363F3881114
:1042480004F47D7464F352216FF3DE416FF3DF7180
:10425800002374480FF0A6F8B546404080F3118853
:104268004FF0030002DF63E66FF01B0393E76FF084
:104278000041BFE76FF01B04CDE76FF0004073E625
:104288000D2840F3C6800E234AB10321397100215D
:104298007971B9710121F9717868CCF810000021A1
:1042A8006FF300016FF341016FF382016FF3C501F2
:1042B800012060F38811C3F3090363F352216FF3FC
:1042C800DE416FF3DF71002356480FF06BF8AD46FF
:1042D800544B1B6813F0070F3BD06D4688B02B4634
:1042E80015F1100200F09880102162B108460429E7
:1042F80001DD4D4E5E61082800DD9C610C2802DD61
:104308004FF49470D8610F2940F3898010243AB192
:104318000421397100217971B971F97178681861CE
:1043280000216FF300016FF341016FF382016FF316
:10433800C501012363F3881104F47D7464F35221E9
:104348006FF3DE416FF3DF71002336480FF02AF870
:10435800AD46404080F311884FF0030002DF334B35
:1043680001221A741B791BB1314B1B68002B65D0D5
:104378003049314807F042FF0146002846D0294B12
:104388001B6813F0070F3BD06D4688B02B4615F11C
:10439800100200F0BA80102062B10446042801DD42
:1043A800214E5E61082C00DD99610C2C02DD4FF472
:1043B8009C71D9610F2840F3AB8010243AB10421D5
:1043C800397100217971B971F97178681861002122
:1043D8006FF300016FF341016FF382016FF3C501C1
:1043E800012363F3881104F47D7464F352216FF39D
:1043F800DE416FF3DF7100230A480EF0D3FFAD46AC
:10440800404080F311884FF0030002DF0C37BD46AF
:10441800F0BD6FF01B0337E76FF0004165E76FF001
:104428001B0474E7281A0020385307003045002081
:10443800444500202802002090020020002200238A
:10444800CDE90623002304930322039202930193E8
:104458000093314B41F64C523049314841F074FFDA
:10446800304B1860304941F03BFD014600283FF4CD
:104478007FAF2E4B1B6813F0070F39D06D4688B0FD
:104488002B4615F110023AD0102062B104460428D8
:1044980001DD274E5E61082C00DD99610C2C02DDE0
:1044A80040F23311D9610F282CDD10243AB10421D0
:1044B800397100217971B971F97178681861002131
:1044C8006FF300016FF341016FF382016FF3C501D0
:1044D800012363F3881104F47D7363F352216FF3AE
:1044E800DE416FF3DF71002310480EF05BFFAD462D
:1044F800404080F311884FF0030002DF38E76FF087
:104508000040C2E76FF01B04D0E76FF0004043E7BC
:104518006FF01B0452E700BF35370000D8EC0020CD
:104528008023002044450020D8540700281A002082
:104538003853070010B50446FFF7EAFC034A082180
:10454800204660F069FE002010BD00BFE05407005F
:10455800F0B58BB002AF774B1B7C3BBB764B1B682F
:1045680013F0060F00F0DF80744BFB6102223A71F2
:1045780000237B71BB71FB717968B961194663F3DC
:10458800000163F3410163F3820163F3C50162F340
:104598008811082262F3522163F3DE4163F3DF716D
:1045A80007F1180264480EF0FDFEBCE007F038FE83
:1045B800604B1A6900920FCB02F0F6F90446002806
:1045C80000F0A8805C4B1B6813F0070F54D06D46B1
:1045D80000233B7102237B7188B00DF1080C1CF19C
:1045E80010021FD00E2022B1042802DD544BCCF853
:1045F800143000233B7002237B70B2B1082802DD1F
:10460800504BCCF818300CF11C03002101290CD8B0
:1046180001F1200606EB070E1EF820EC03F801EB6B
:104628000131F3E76FF00040DDE70D2842DD0E238E
:104638004AB10321397100217971B9710121F971E8
:104648007868CCF8100000216FF300016FF3410186
:104658006FF382016FF3C501012060F38811C3F382
:10466800090363F352216FF3DE416FF3DF71002317
:1046780031480EF097FEAD462F4B1B6813F0070F1D
:1046880042D06D4688B002AB13F1100215D010214C
:1046980062B10846042901DD2B4E5E61082800DD61
:1046A8009C610C280CDD40F25510D8610F293DDDC6
:1046B800102407E06FF01B03BAE76FF00041E7E74B
:1046C8006FF01B043AB10421397100217971B97175
:1046D800F9717868186100216FF300016FF34101E7
:1046E8006FF382016FF3C501012363F3881104F4AA
:1046F8007D7363F352216FF3DE416FF3DF710023A3
:104708000D480EF04FFEAD46404080F311884FF043
:10471800030002DF074B00221A740C480AF0F6FE69
:104728000B480AF0F3FE2437BD46F0BD6FF01B04BA
:10473800C8E700BF30450020281A0020F8540700B9
:1047480054ED0700145507003853070028020020CD
:104758009002002010B50446FFF7FAFE034A08212C
:10476800204660F059FD002010BD00BF2C55070001
:1047780010B58CB000220023CDE9002304AA05A9B6
:104788001C480AF02FFE38B9044605A919480AF052
:104798005DFE20460CB010BD174B1B6813F0060FCA
:1047A80002D16FF08B04F4E7144B0B9302228DF8BF
:1047B8000C2000238DF80D308DF80E308DF80F3059
:1047C80003990A91194663F3000163F3410163F306
:1047D800820163F3C50162F38811082262F3522152
:1047E80063F3DE4163F3DF710AAA03480EF0DAFDD2
:1047F800D7E700BF28020020281A002044550700E8
:10480800B0B582B000AF07F015FD002848D00146CA
:10481800284B1B6813F0070F3CD06C4688B06B46DA
:1048280013F110023FD0102072B18446042801DD34
:10483800214D5D61BCF1080F00DD9961BCF10C0FE1
:1048480002DD4FF4BA71D9610F282FDD4FF0100C3B
:104858003AB10421397100217971B971F971786817
:10486800186100216FF300016FF341016FF38201BA
:104878006FF3C501012363F388110CF47D7C6CF39D
:1048880052216FF3DE416FF3DF71002309480EF008
:1048980089FDA546404080F311884FF0030002DFF0
:1048A8000837BD46B0BD6FF00040BDE76FF01B0C88
:1048B800CEE700BF281A002038530700014B1870B4
:1048C800704700BFA8190020A14B1B78002B40F0AF
:1048D8003C81F0B589B000AF9E4B1B680BBB9D4B6C
:1048E8004FF47A721A609B4B1B68002B4FD09A4A80
:1048F800126802F00702022A4FD96C4688B069464E
:1049080011F1100218D00C203AB10546042801DD37
:10491800924E4E61082D12DD8B610B2834DD0C237D
:104928000FE0B3F57A6F03D38A4B00221A60DAE7F7
:104938005B00884A1360D6E76FF00040E4E76FF049
:104948001B033AB10320387100207871B871F871EF
:104958007868086100216FF300016FF341016FF37C
:1049680082016FF3C501032060F3881103F47B73A0
:1049780063F352216FF3DE416FF3DF710023764852
:104988000EF010FDA54608E06FF01B03D9E7724B47
:104998001B6803F00703022B2BD86E4B1868FFF730
:1049A80059F90446002800F0C9806B4B1B6813F0C6
:1049B800070F76D06D4600233B7102237B7188B0C8
:1049C800EC461CF1100237D00E2022B1042802DD7B
:1049D800634BCCF8143000233B7002237B70CAB3BE
:1049E800082802DD5F4BCCF818300CF11C030021BD
:1049F8002EE05D4BFB6102233B7100237B71BB7191
:104A0800FB717A68BA61194663F3000163F34101E7
:104A180063F3820163F3C501032262F3881108225C
:104A280062F3522163F3DE4163F3DF7107F1180289
:104A380049480EF0B7FCB0E76FF00040C5E701F158
:104A4800200606EB070E1EF820EC03F801EB0131F7
:104A58000129F4D90D2841DD0E234AB1032139710A
:104A680000217971B9710121F9717868CCF81000C9
:104A780000216FF300016FF341016FF382016FF3BF
:104A8800C501012060F38811C3F3090363F35221C0
:104A98006FF3DE416FF3DF7100232F480EF082FCC5
:104AA800AD462D4B1B6813F0070F41D06D4688B0FB
:104AB8006B4613F1100214D010215AB1084604298C
:104AC80001DD2A4E5E61082800DD9C610C280BDDA3
:104AD800FC20D8610F2935DD102407E06FF01B0397
:104AE800BBE76FF00041E8E76FF01B043AB104211F
:104AF800397100217971B971F971786818610021EB
:104B08006FF300016FF341016FF382016FF3C50189
:104B1800012363F3881104F47D7363F352216FF367
:104B2800DE416FF3DF7100230B480EF03BFCAD460E
:104B3800404080F311884FF0030002DF0020243743
:104B4800BD46F0BD6FF01B04D0E70020704700BFE2
:104B5800A8190020886400203C1B0020205607006C
:104B680054ED070048560700385607003853070029
:104B7800B0B5A2B000AFC7E900013B794BB93968BD
:104B88008B1E042B00F2E480DFE803F05D322F88EF
:104B9800B500934B1B6813F0060F02D18837BD464A
:104BA800B0BD904BC7F8843002223A7300237B7360
:104BB800BB73FB73F968C7F88010194663F30001EB
:104BC80063F3410163F3820163F3C50162F3881162
:104BD800082262F3522163F3DE4163F3DF7107F1C8
:104BE80080027F480EF0DEFBD8E706F093FCD5E79D
:104BF80006F0E8FB0028D1D0794B1B6813F0060FAC
:104C0800CCD0794B7B6502223A7300237B73BB734C
:104C1800FB73F9683965194663F3000163F34101D1
:104C280063F3820163F3C50162F38811082262F31A
:104C3800522163F3DE4163F3DF7107F150026848E4
:104C48000EF0B0FBAAE706F0F5FB0028A6D0644BEF
:104C58001B6813F0060FA1D0644BFB6602223A735F
:104C680000237B73BB73FB73F968B966194663F35A
:104C7800000163F3410163F3820163F3C50162F349
:104C88008811082262F3522163F3DE4163F3DF7176
:104C980007F1680252480EF085FB7FE706F002FC38
:104CA80000283FF47BAF4E4B1B6813F0060F3FF410
:104CB80075AF4F4BFB6302223A7300237B73BB73C0
:104CC800FB73F968B963194663F3000163F34101A3
:104CD80063F3820163F3C50162F38811082262F36A
:104CE800522163F3DE4163F3DF7107F138023C4878
:104CF8000EF058FB52E7FFF7E7FD00283FF44EAFF0
:104D0800374B1B6813F0060F3FF448AF394B7B62F3
:104D180002223A7300237B73BB73FB73F968396211
:104D2800194663F3000163F3410163F3820163F3FE
:104D3800C50162F38811082262F3522163F3DE4150
:104D480063F3DF7107F1200225480EF02BFB25E7FE
:104D5800234B1B6813F0060F3FF420AF6C4688B056
:104D6800EC461CF1100232D00C234AB11846042B31
:104D780002DD214DCCF8145008282BDDCCF8181092
:104D88000B2B2ADD0C2342B10321397300217973DF
:104D9800B973F973F868CCF8100000216FF30001BB
:104DA8006FF341016FF382016FF3C501022060F3D5
:104DB800881103F47B7363F352216FF3DE416FF3C1
:104DC800DF71002306480EF0EDFAA546E6E66FF01F
:104DD8000043CAE76FF01B03D5E76FF01B03D2E768
:104DE8003C1B002068560700805607009C560700A9
:104DF800B8560700D0560700E8560700F0B58BB044
:104E080000AF012823D0022800F08180002800F09C
:104E1800DC809B4B1B6813F0060F1BD06C4688B0D8
:104E28006B4613F1100200F000810C214AB18C4648
:104E3800042901DD934D5D61BCF1080F40F3F88052
:104E480098610B2940F319814FF00C0CF2E08E4B5E
:104E58001B7813B92C37BD46F0BDFFF759F8002071
:104E6800FFF72CFD022008F083FC01460028F1D052
:104E7800834B1B6813F0070F3FD06D4688B06B4615
:104E880013F1100212D0102062B10446042801DD8B
:104E98007E4E5E61082C00DD99610C2C09DD4FF413
:104EA800AF71D9610F282FDD102404E06FF00040A6
:104EB800EAE76FF01B043AB10421397300217973D2
:104EC800B973F973F868186100216FF300016FF383
:104ED80041016FF382016FF3C501012363F3881168
:104EE80004F47D7363F352216FF3DE416FF3DF71D6
:104EF800002363480EF056FAAD46404080F311880F
:104F08004FF0030002DFA5E76FF01B04D3E75E4B09
:104F18001B78012B9ED00120FFF7D0FCFFF718FB70
:104F2800022008F0B5FB0146002893D0544B1B68BB
:104F380013F0070F3FD06D4688B06B4613F110028F
:104F480012D0102062B10446042801DD4F4E5E6184
:104F5800082C00DD99610C2C09DD40F26D11D96136
:104F68000F282FDD102404E06FF00040EAE76FF00F
:104F78001B043AB10421397300217973B973F973A9
:104F8800F868186100216FF300016FF341016FF3B6
:104F980082016FF3C501012363F3881104F47D7363
:104FA80063F352216FF3DE416FF3DF71002334485E
:104FB8000EF0F8F9AD46404080F311884FF0030039
:104FC80002DF47E76FF01B04D3E707F10801381D3C
:104FD8005EF0FEF900283FF43DAF294B1B6813F043
:104FE800060F3FF437AF2A4B7B6202223A73002345
:104FF8007B73BB73FB73F9683962194663F300016D
:1050080063F3410163F3820163F3C50162F388111D
:10501800082262F3522163F3DE4163F3DF7107F183
:10502800200217480EF0BEF914E76FF00041FDE6C4
:105038006FF01B0C3AB10321397300217973B973EE
:10504800F973F868186100216FF300016FF34101EB
:105058006FF382016FF3C501022363F388110CF427
:105068007B7363F352216FF3DE416FF3DF7100232B
:1050780003480EF097F9A546ECE66FF01B0CD9E74C
:105088003C1B002024570700A819002038530700AC
:105098000C5707002DE9F04F8FB002AF81460C4640
:1050A80090461E4601F0CEF9934D2D781DB1343748
:1050B800BD46BDE8F08F824600237B6107F10C02F4
:1050C80007F110018D480AF0E9F9014600284ED091
:1050D8008B4B1B6813F0070F43D06D4688B002ABAB
:1050E80013F1100216D010207AB18446042803DD8B
:1050F800DFF81CE2C3F814E0BCF1080F00DD996189
:10510800BCF10C0F09DD8521D9610F2867DD4FF04F
:10511800100C04E06FF00040E6E76FF01B0C3AB1AA
:105128000421397200217972B972F972B86818616C
:1051380000216FF300016FF341016FF382016FF3F8
:10514800C501012363F388110CF47D7363F35221C5
:105158006FF3DE416FF3DF71002369480EF022F927
:10516800AD46404080F311884FF0030002DF3B69F1
:10517800042B40F28A80624B1B6813F0060F31D172
:1051880000220023CDE900233A1D39465B480AF086
:1051980029F90146002874D0594B1B6813F0070FF2
:1051A80069D06D4688B002AB13F110023CD01020D4
:1051B8007AB18446042803DDDFF854E1C3F814E02B
:1051C800BCF1080F00DD9961BCF10C0F2FDD9121B6
:1051D800D9610F2840F389804FF0100C29E06FF057
:1051E8001B0C9CE7474BFB6202223A7200237B723E
:1051F800BB72FB72B968B962194663F3000163F3C5
:10520800410163F3820163F3C50162F38811082247
:1052180062F3522163F3DE4163F3DF7107F1280281
:1052280037480EF0BFF8ABE76FF00040C0E76FF00B
:105238001B0C3AB10421397200217972B972F972E2
:10524800B868186100216FF300016FF341016FF333
:1052580082016FF3C501012363F388110CF47D7398
:1052680063F352216FF3DE416FF3DF7100232448AB
:105278000EF098F8AD46404080F311884FF00300D7
:1052880002DF39461D480AF0E1F80022002307F141
:1052980014011A4809F080FF0546002800F0BA807A
:1052A800174B1B6813F0070F65D0EB4600233B72C2
:1052B80002237B7288B00DF1080C1CF1100217D084
:1052C8000E2022B1042802DD0F4BCCF81430002345
:1052D8003B7102237B713AB3082802DD0B4BCCF8F3
:1052E80018300CF11C0300211CE06FF01B0CA0E728
:1052F8006FF00040E5E700BFA8190020F802002081
:105308003C1B00204457070054ED0700585707007E
:105318003853070001F1300EBE441EF82CEC03F898
:1053280001EB01310129F5D90D2843DD0E234AB1DE
:105338000321397200217972B9720121F972B868B2
:10534800CCF8100000216FF300016FF341016FF3F7
:1053580082016FF3C501012060F38811C3F30903CB
:1053680063F352216FF3DE416FF3DF710023A1482D
:105378000EF018F8DD469F4B1B6813F0070F43D05B
:10538800EB4688B002AB13F1100216D010216AB1B7
:105398000846042903DDDFF870C2C3F814C00828E2
:1053A80000DD9D610C280BDD9720D8610F2972DD87
:1053B800102507E06FF01B03B9E76FF00041E6E73F
:1053C8006FF01B053AB10421397200217972B97264
:1053D800F972B868186100216FF300016FF3410199
:1053E8006FF382016FF3C501012363F3881105F49C
:1053F8007D7363F352216FF3DE416FF3DF71002396
:105408007C480DF0CFFFDD46404080F311884FF017
:10541800030002DFFB2C41D82246494678696EF02A
:10542800A3FB7B6983F8FF80C3F8FB40C3F80061E6
:10543800C3F804A14FF4847207F114016E4809F00F
:10544800D5FE054600283FF432AE6A4B1B6813F0C0
:10545800070F00F00B816E4600233B7202237B721C
:1054680088B002AC14F1100200F0C0800E201AB10E
:10547800042801DD614B636100233B7102237B71CA
:10548800002A00F0CD80082801DD5D4BA36104F1FE
:105498001C030021C2E06FF01B0593E7554B1B6806
:1054A80013F0070F4FD06D4600233B7202237B7227
:1054B80088B002AC14F1100212D00E201AB10428E0
:1054C80001DD4E4B636100233B7102237B71A2B166
:1054D800082801DD4B4BA36104F11C0300210AE0FD
:1054E8006FF00040EAE701F130063E4416F82C6CF4
:1054F80003F8016B01310129F5D90D2842DD0E238E
:1055080042B10321397200217972B9720121F9720D
:10551800B868206100216FF300016FF341016FF358
:1055280082016FF3C501012060F38811C3F30903F9
:1055380063F352216FF3DE416FF3DF7100232D48CF
:105548000DF030FFAD462B4B1B6813F0070F43D00F
:105558006D4688B002AB13F1100216D010216AB163
:105568000846042901DD284C5C61082802DD6FF03B
:105578000B049C610C280BDD9A20D8610F2932DDC1
:10558800102407E06FF01B03BAE76FF00041E6E76D
:105598006FF01B043AB10421397200217972B97293
:1055A800F972B868186100216FF300016FF34101C7
:1055B8006FF382016FF3C501012363F3881104F4CB
:1055C8007D7464F352216FF3DE416FF3DF710023C2
:1055D80008480DF0E7FEAD46404080F311884FF0D3
:1055E800030002DF63E56FF01B04D3E76FF00040B0
:1055F8003DE700BF3C1B0020F802002054ED0700E7
:1056080070540700745707003853070001F1300C35
:10561800BC441CF82CCC03F801CB01310129F5D985
:105628000D2840DD0E2342B1032139720021797221
:10563800B9720121F972B868206100216FF3000185
:105648006FF341016FF382016FF3C501012060F32D
:105658008811C3F3090363F352216FF3DE416FF33B
:10566800DF7100232A480DF09DFEB546284B1B68C4
:1056780013F0070F41D06E4688B002AB13F1100249
:1056880014D010215AB10846042901DD214C5C616F
:10569800082800DD9D610C280BDDA720D8610F29A3
:1056A80032DD102407E06FF01B03BCE76FF0004108
:1056B800E8E76FF01B043AB10421397200217972CE
:1056C800B972F972B868186100216FF300016FF3BD
:1056D80041016FF382016FF3C501012363F3881160
:1056E80004F47D7464F352216FF3DE416FF3DF71CC
:1056F800002307480DF056FEB546404080F3118858
:105708004FF0030002DFD2E46FF01B04D3E700BFC1
:105718003C1B002038530700F0B587B002AF0023C8
:10572800FB6084E06FF000409EE00F2840F3B180FA
:1057380010213AB10420387100207871B871F871DD
:10574800786818616FF300056FF341056FF3820500
:105758006FF3C505012363F3881501F47D7161F3C7
:1057680052256FF3DE456FF3DF75002329464D4858
:105778000DF018FEB546404080F311884FF0030045
:1057880002DFF86890F8FF20D0F8FB10FEF7D6FA91
:105798008446002846D0434B1B6813F0070F3BD0C4
:1057A8006E4688B002AB13F1100275D0102172B1A9
:1057B8000846042903DDDFF8F4E0C3F814E00828FC
:1057C80001DDC3F818C00C2801DDB920D8610F2904
:1057D80065DD10213AB10420387100207871B87164
:1057E800F871786818616FF300046FF341046FF380
:1057F80082046FF3C504012363F3881401F47D73F5
:1058080063F352246FF3DE446FF3DF740023214601
:1058180024480DF0C7FDB546404080F311884FF08D
:10582800030002DF07F10C011F4809F00FFE4FF0DB
:10583800FF324FF0FF33CDE9002307F1080207F1EB
:105848000C01194809F0CEFD0146002899D0154BE6
:105858001B6813F0070F8ED06E4688B002AB13F1A9
:1058680010023FF45FAF1020002A3FF45EAF844679
:10587800042803DDDFF834E0C3F814E0BCF1080FB6
:1058880000DD9961BCF10C0F7FF74FAFB421D961EE
:105898004BE76FF01B014CE76FF0004187E76FF0B3
:1058A8001B0197E73C1B0020F80200203853070033
:1058B8002A4B1B7803B17047F0B583B000AF05F0F1
:1058C80061FE044600283ED0254B1B6883423AD02F
:1058D800244B1B6813F0060F35D06D4688B06B4615
:1058E80013F1100234D00C213AB10846042901DD25
:1058F8001D4E5E61082800DD9C610B292BDD4FF0F1
:105908000C0C3AB10321397100217971B971F9711F
:105918007868186100216FF300016FF341016FF39C
:1059280082016FF3C501022363F388110CF47B7CB9
:105938006CF352216FF3DE416FF3DF7100230948E6
:105948000DF030FDAD46064B1C600C37BD46F0BD72
:105958006FF00041C8E76FF01B0CD2E7A8190020D0
:105968008C6400203C1B002094570700B0B584B01D
:1059780000AF4FF0FF324FF0FF33381D06F060F9EB
:105988003B7953B1012B0CD107F1100313E9030044
:10599800FFF7EEF81037BD46B0BD387AFFF72EFA9C
:1059A800F8E7214A126812F0060FF3D06C4688B067
:1059B800694611F1100230D00C2042B18446042807
:1059C80001DD1A4D4D61BCF1080F00DD8B610B281C
:1059D80026DD0C233AB10320387000207870B870A7
:1059E800F8703868086100216FF300016FF3410116
:1059F8006FF382016FF3C501022060F3881103F48D
:105A08007B7363F352216FF3DE416FF3DF71002381
:105A180005480DF0C7FCA546BCE76FF00040CCE791
:105A28006FF01B03D6E700BF3C1B0020C0570700E0
:105A3800F0B58BB008AFA84809F00EFE002800F0BA
:105A4800A2800446A54B1B6813F0070F54D06D467F
:105A580000233B7102237B7188B0AC4615F110021C
:105A68001FD00E2022B1042802DD9D4BCCF8143043
:105A780000233B7002237B70B2B1082802DD994BEA
:105A8800CCF818300CF11C03002101290CD801F1C5
:105A9800080606EB070E1EF808EC03F801EB0131C7
:105AA800F3E76FF00040DDE70D2840F302810E2395
:105AB8004AB10321397100217971B9710121F97154
:105AC8007868CCF8100000216FF300016FF34101F2
